{
  "contractName": "HealthcareRecords",
  "abi": [
    {
      "inputs": [],
      "stateMutability": "nonpayable",
      "type": "constructor"
    },
    {
      "anonymous": false,
      "inputs": [
        {
          "indexed": false,
          "internalType": "uint256",
          "name": "patientID",
          "type": "uint256"
        },
        {
          "indexed": false,
          "internalType": "address",
          "name": "doctor",
          "type": "address"
        }
      ],
      "name": "ConsentGranted",
      "type": "event"
    },
    {
      "anonymous": false,
      "inputs": [
        {
          "indexed": false,
          "internalType": "uint256",
          "name": "patientID",
          "type": "uint256"
        },
        {
          "indexed": false,
          "internalType": "address",
          "name": "doctor",
          "type": "address"
        }
      ],
      "name": "ConsentRevoked",
      "type": "event"
    },
    {
      "anonymous": false,
      "inputs": [
        {
          "indexed": false,
          "internalType": "address",
          "name": "doctor",
          "type": "address"
        }
      ],
      "name": "DoctorAuthorized",
      "type": "event"
    },
    {
      "anonymous": false,
      "inputs": [
        {
          "indexed": false,
          "internalType": "uint256",
          "name": "patientID",
          "type": "uint256"
        },
        {
          "indexed": false,
          "internalType": "address",
          "name": "patient",
          "type": "address"
        }
      ],
      "name": "PatientRegistered",
      "type": "event"
    },
    {
      "anonymous": false,
      "inputs": [
        {
          "indexed": false,
          "internalType": "uint256",
          "name": "patientID",
          "type": "uint256"
        },
        {
          "indexed": false,
          "internalType": "address",
          "name": "accessor",
          "type": "address"
        },
        {
          "indexed": false,
          "internalType": "uint256",
          "name": "time",
          "type": "uint256"
        }
      ],
      "name": "RecordAccessed",
      "type": "event"
    },
    {
      "inputs": [
        {
          "internalType": "uint256",
          "name": "",
          "type": "uint256"
        },
        {
          "internalType": "address",
          "name": "",
          "type": "address"
        }
      ],
      "name": "consent",
      "outputs": [
        {
          "internalType": "bool",
          "name": "",
          "type": "bool"
        }
      ],
      "stateMutability": "view",
      "type": "function",
      "constant": true
    },
    {
      "inputs": [
        {
          "internalType": "address",
          "name": "",
          "type": "address"
        }
      ],
      "name": "doctors",
      "outputs": [
        {
          "internalType": "bool",
          "name": "",
          "type": "bool"
        }
      ],
      "stateMutability": "view",
      "type": "function",
      "constant": true
    },
    {
      "inputs": [],
      "name": "owner",
      "outputs": [
        {
          "internalType": "address",
          "name": "",
          "type": "address"
        }
      ],
      "stateMutability": "view",
      "type": "function",
      "constant": true
    },
    {
      "inputs": [
        {
          "internalType": "uint256",
          "name": "",
          "type": "uint256"
        }
      ],
      "name": "patientOwner",
      "outputs": [
        {
          "internalType": "address",
          "name": "",
          "type": "address"
        }
      ],
      "stateMutability": "view",
      "type": "function",
      "constant": true
    },
    {
      "inputs": [
        {
          "internalType": "address",
          "name": "doctor",
          "type": "address"
        }
      ],
      "name": "authorizeDoctor",
      "outputs": [],
      "stateMutability": "nonpayable",
      "type": "function"
    },
    {
      "inputs": [
        {
          "internalType": "uint256",
          "name": "patientID",
          "type": "uint256"
        }
      ],
      "name": "registerPatient",
      "outputs": [],
      "stateMutability": "nonpayable",
      "type": "function"
    },
    {
      "inputs": [
        {
          "internalType": "uint256",
          "name": "patientID",
          "type": "uint256"
        },
        {
          "internalType": "address",
          "name": "doctor",
          "type": "address"
        }
      ],
      "name": "grantConsent",
      "outputs": [],
      "stateMutability": "nonpayable",
      "type": "function"
    },
    {
      "inputs": [
        {
          "internalType": "uint256",
          "name": "patientID",
          "type": "uint256"
        },
        {
          "internalType": "address",
          "name": "doctor",
          "type": "address"
        }
      ],
      "name": "revokeConsent",
      "outputs": [],
      "stateMutability": "nonpayable",
      "type": "function"
    },
    {
      "inputs": [
        {
          "internalType": "uint256",
          "name": "patientID",
          "type": "uint256"
        },
        {
          "internalType": "string",
          "name": "patientName",
          "type": "string"
        },
        {
          "internalType": "string",
          "name": "gender",
          "type": "string"
        },
        {
          "internalType": "uint256",
          "name": "age",
          "type": "uint256"
        },
        {
          "internalType": "string",
          "name": "bloodGroup",
          "type": "string"
        },
        {
          "internalType": "string",
          "name": "diagnosis",
          "type": "string"
        },
        {
          "internalType": "string",
          "name": "treatment",
          "type": "string"
        },
        {
          "internalType": "string",
          "name": "doctorName",
          "type": "string"
        }
      ],
      "name": "addRecord",
      "outputs": [],
      "stateMutability": "nonpayable",
      "type": "function"
    },
    {
      "inputs": [
        {
          "internalType": "uint256",
          "name": "patientID",
          "type": "uint256"
        }
      ],
      "name": "getPatientRecords",
      "outputs": [
        {
          "components": [
            {
              "internalType": "uint256",
              "name": "recordID",
              "type": "uint256"
            },
            {
              "internalType": "string",
              "name": "patientName",
              "type": "string"
            },
            {
              "internalType": "string",
              "name": "gender",
              "type": "string"
            },
            {
              "internalType": "uint256",
              "name": "age",
              "type": "uint256"
            },
            {
              "internalType": "string",
              "name": "bloodGroup",
              "type": "string"
            },
            {
              "internalType": "string",
              "name": "diagnosis",
              "type": "string"
            },
            {
              "internalType": "string",
              "name": "treatment",
              "type": "string"
            },
            {
              "internalType": "string",
              "name": "doctorName",
              "type": "string"
            },
            {
              "internalType": "uint256",
              "name": "timestamp",
              "type": "uint256"
            }
          ],
          "internalType": "struct HealthcareRecords.Record[]",
          "name": "",
          "type": "tuple[]"
        }
      ],
      "stateMutability": "view",
      "type": "function",
      "constant": true
    }
  ],
  "bytecode": "0x608060405234801561001057600080fd5b50336000806101000a81548173ffffffffffffffffffffffffffffffffffffffff021916908373ffffffffffffffffffffffffffffffffffffffff160217905550611929806100606000396000f3fe608060405234801561001057600080fd5b506004361061009e5760003560e01c80638da5cb5b116100665780638da5cb5b14610143578063a9583c2214610161578063bcdf616114610191578063dce7e843146101ad578063ffa39c5d146101dd5761009e565b80632c4b05d0146100a35780632ef711af146100d357806348fba5c6146100ef57806358c9202c1461010b57806386c8561914610127575b600080fd5b6100bd60048036038101906100b891906110ae565b61020d565b6040516100ca91906115cf565b60405180910390f35b6100ed60048036038101906100e891906110ae565b61023c565b005b610109600480360381019061010491906110ae565b610383565b005b6101256004803603810190610120919061105c565b6104ca565b005b610141600480360381019061013c9190611085565b6105e9565b005b61014b610719565b6040516101589190611592565b60405180910390f35b61017b6004803603810190610176919061105c565b61073d565b60405161018891906115cf565b60405180910390f35b6101ab60048036038101906101a691906110ea565b61075d565b005b6101c760048036038101906101c29190611085565b6109f1565b6040516101d491906115ad565b60405180910390f35b6101f760048036038101906101f29190611085565b610ef4565b6040516102049190611592565b60405180910390f35b60046020528160005260406000206020528060005260406000206000915091509054906101000a900460ff1681565b6003600083815260200190815260200160002060009054906101000a900473ffffffffffffffffffffffffffffffffffffffff1673ffffffffffffffffffffffffffffffffffffffff163373ffffffffffffffffffffffffffffffffffffffff16146102dd576040517f08c379a00000000000000000000000000000000000000000000000000000000081526004016102d49061166a565b60405180910390fd5b60006004600084815260200190815260200160002060008373ffffffffffffffffffffffffffffffffffffffff1673ffffffffffffffffffffffffffffffffffffffff16815260200190815260200160002060006101000a81548160ff0219169083151502179055507fbdf496d41407769ff71ececae6537542760506406fb62a651e7ac685c637bd8382826040516103779291906116aa565b60405180910390a15050565b6003600083815260200190815260200160002060009054906101000a900473ffffffffffffffffffffffffffffffffffffffff1673ffffffffffffffffffffffffffffffffffffffff163373ffffffffffffffffffffffffffffffffffffffff1614610424576040517f08c379a000000000000000000000000000000000000000000000000000000000815260040161041b9061166a565b60405180910390fd5b60016004600084815260200190815260200160002060008373ffffffffffffffffffffffffffffffffffffffff1673ffffffffffffffffffffffffffffffffffffffff16815260200190815260200160002060006101000a81548160ff0219169083151502179055507ff3a34a7a216f396897a5bd0483c3b0b288e703d61c3c0f3a1c1cf6e04cb3130a82826040516104be9291906116aa565b60405180910390a15050565b60008054906101000a900473ffffffffffffffffffffffffffffffffffffffff1673ffffffffffffffffffffffffffffffffffffffff163373ffffffffffffffffffffffffffffffffffffffff1614610558576040517f08c379a000000000000000000000000000000000000000000000000000000000815260040161054f906115ea565b60405180910390fd5b6001600260008373ffffffffffffffffffffffffffffffffffffffff1673ffffffffffffffffffffffffffffffffffffffff16815260200190815260200160002060006101000a81548160ff0219169083151502179055507ea8f5cec2bb2e273b1757cce595776dacdc60b8c5245756d69fa2bd0b2833cc816040516105de9190611592565b60405180910390a150565b600073ffffffffffffffffffffffffffffffffffffffff166003600083815260200190815260200160002060009054906101000a900473ffffffffffffffffffffffffffffffffffffffff1673ffffffffffffffffffffffffffffffffffffffff161461068b576040517f08c379a00000000000000000000000000000000000000000000000000000000081526004016106829061162a565b60405180910390fd5b336003600083815260200190815260200160002060006101000a81548173ffffffffffffffffffffffffffffffffffffffff021916908373ffffffffffffffffffffffffffffffffffffffff1602179055507f5eac531a816ac6546a4c3edbf9748745fe74cfd5806cd8fa8a4a01b71248bf84813360405161070e9291906116aa565b60405180910390a150565b60008054906101000a900473ffffffffffffffffffffffffffffffffffffffff1681565b60026020528060005260406000206000915054906101000a900460ff1681565b600260003373ffffffffffffffffffffffffffffffffffffffff1673ffffffffffffffffffffffffffffffffffffffff16815260200190815260200160002060009054906101000a900460ff166107e9576040517f08c379a00000000000000000000000000000000000000000000000000000000081526004016107e09061164a565b60405180910390fd5b6004600089815260200190815260200160002060003373ffffffffffffffffffffffffffffffffffffffff1673ffffffffffffffffffffffffffffffffffffffff16815260200190815260200160002060009054906101000a900460ff16610886576040517f08c379a000000000000000000000000000000000000000000000000000000000815260040161087d9061160a565b60405180910390fd5b60016000898152602001908152602001600020604051806101200160405280600160008c815260200190815260200160002080549050815260200189815260200188815260200187815260200186815260200185815260200184815260200183815260200142815250908060018154018082558091505060019003906000526020600020906009020160009091909190915060008201518160000155602082015181600101908051906020019061093e929190610f27565b50604082015181600201908051906020019061095b929190610f27565b50606082015181600301556080820151816004019080519060200190610982929190610f27565b5060a082015181600501908051906020019061099f929190610f27565b5060c08201518160060190805190602001906109bc929190610f27565b5060e08201518160070190805190602001906109d9929190610f27565b50610100820151816008015550505050505050505050565b60606003600083815260200190815260200160002060009054906101000a900473ffffffffffffffffffffffffffffffffffffffff1673ffffffffffffffffffffffffffffffffffffffff163373ffffffffffffffffffffffffffffffffffffffff161480610aba57506004600083815260200190815260200160002060003373ffffffffffffffffffffffffffffffffffffffff1673ffffffffffffffffffffffffffffffffffffffff16815260200190815260200160002060009054906101000a900460ff165b610af9576040517f08c379a0000000000000000000000000000000000000000000000000000000008152600401610af09061168a565b60405180910390fd5b60016000838152602001908152602001600020805480602002602001604051908101604052809291908181526020016000905b82821015610ee957838290600052602060002090600902016040518061012001604052908160008201548152602001600182018054610b6a90611824565b80601f0160208091040260200160405190810160405280929190818152602001828054610b9690611824565b8015610be35780601f10610bb857610100808354040283529160200191610be3565b820191906000526020600020905b815481529060010190602001808311610bc657829003601f168201915b50505050508152602001600282018054610bfc90611824565b80601f0160208091040260200160405190810160405280929190818152602001828054610c2890611824565b8015610c755780601f10610c4a57610100808354040283529160200191610c75565b820191906000526020600020905b815481529060010190602001808311610c5857829003601f168201915b5050505050815260200160038201548152602001600482018054610c9890611824565b80601f0160208091040260200160405190810160405280929190818152602001828054610cc490611824565b8015610d115780601f10610ce657610100808354040283529160200191610d11565b820191906000526020600020905b815481529060010190602001808311610cf457829003601f168201915b50505050508152602001600582018054610d2a90611824565b80601f0160208091040260200160405190810160405280929190818152602001828054610d5690611824565b8015610da35780601f10610d7857610100808354040283529160200191610da3565b820191906000526020600020905b815481529060010190602001808311610d8657829003601f168201915b50505050508152602001600682018054610dbc90611824565b80601f0160208091040260200160405190810160405280929190818152602001828054610de890611824565b8015610e355780601f10610e0a57610100808354040283529160200191610e35565b820191906000526020600020905b815481529060010190602001808311610e1857829003601f168201915b50505050508152602001600782018054610e4e90611824565b80601f0160208091040260200160405190810160405280929190818152602001828054610e7a90611824565b8015610ec75780601f10610e9c57610100808354040283529160200191610ec7565b820191906000526020600020905b815481529060010190602001808311610eaa57829003601f168201915b5050505050815260200160088201548152505081526020019060010190610b2c565b505050509050919050565b60036020528060005260406000206000915054906101000a900473ffffffffffffffffffffffffffffffffffffffff1681565b828054610f3390611824565b90600052602060002090601f016020900481019282610f555760008555610f9c565b82601f10610f6e57805160ff1916838001178555610f9c565b82800160010185558215610f9c579182015b82811115610f9b578251825591602001919060010190610f80565b5b509050610fa99190610fad565b5090565b5b80821115610fc6576000816000905550600101610fae565b5090565b6000610fdd610fd884611704565b6116d3565b905082815260208101848484011115610ff557600080fd5b6110008482856117e2565b509392505050565b600081359050611017816118c5565b92915050565b600082601f83011261102e57600080fd5b813561103e848260208601610fca565b91505092915050565b600081359050611056816118dc565b92915050565b60006020828403121561106e57600080fd5b600061107c84828501611008565b91505092915050565b60006020828403121561109757600080fd5b60006110a584828501611047565b91505092915050565b600080604083850312156110c157600080fd5b60006110cf85828601611047565b92505060206110e085828601611008565b9150509250929050565b600080600080600080600080610100898b03121561110757600080fd5b60006111158b828c01611047565b985050602089013567ffffffffffffffff81111561113257600080fd5b61113e8b828c0161101d565b975050604089013567ffffffffffffffff81111561115b57600080fd5b6111678b828c0161101d565b96505060606111788b828c01611047565b955050608089013567ffffffffffffffff81111561119557600080fd5b6111a18b828c0161101d565b94505060a089013567ffffffffffffffff8111156111be57600080fd5b6111ca8b828c0161101d565b93505060c089013567ffffffffffffffff8111156111e757600080fd5b6111f38b828c0161101d565b92505060e089013567ffffffffffffffff81111561121057600080fd5b61121c8b828c0161101d565b9150509295985092959890939650565b6000611238838361148c565b905092915050565b6112498161179a565b82525050565b600061125a82611744565b6112648185611767565b93508360208202850161127685611734565b8060005b858110156112b25784840389528151611293858261122c565b945061129e8361175a565b925060208a0199505060018101905061127a565b50829750879550505050505092915050565b6112cd816117ac565b82525050565b60006112de8261174f565b6112e88185611778565b93506112f88185602086016117f1565b611301816118b4565b840191505092915050565b6000611319600a83611789565b91507f4f6e6c79206f776e6572000000000000000000000000000000000000000000006000830152602082019050919050565b6000611359601283611789565b91507f4e6f2070617469656e7420636f6e73656e7400000000000000000000000000006000830152602082019050919050565b6000611399601283611789565b91507f416c7265616479207265676973746572656400000000000000000000000000006000830152602082019050919050565b60006113d9600c83611789565b91507f4e6f74206120646f63746f7200000000000000000000000000000000000000006000830152602082019050919050565b6000611419600b83611789565b91507f4e6f742070617469656e740000000000000000000000000000000000000000006000830152602082019050919050565b6000611459600d83611789565b91507f4163636573732064656e696564000000000000000000000000000000000000006000830152602082019050919050565b6000610120830160008301516114a56000860182611574565b50602083015184820360208601526114bd82826112d3565b915050604083015184820360408601526114d782826112d3565b91505060608301516114ec6060860182611574565b506080830151848203608086015261150482826112d3565b91505060a083015184820360a086015261151e82826112d3565b91505060c083015184820360c086015261153882826112d3565b91505060e083015184820360e086015261155282826112d3565b915050610100830151611569610100860182611574565b508091505092915050565b61157d816117d8565b82525050565b61158c816117d8565b82525050565b60006020820190506115a76000830184611240565b92915050565b600060208201905081810360008301526115c7818461124f565b905092915050565b60006020820190506115e460008301846112c4565b92915050565b600060208201905081810360008301526116038161130c565b9050919050565b600060208201905081810360008301526116238161134c565b9050919050565b600060208201905081810360008301526116438161138c565b9050919050565b60006020820190508181036000830152611663816113cc565b9050919050565b600060208201905081810360008301526116838161140c565b9050919050565b600060208201905081810360008301526116a38161144c565b9050919050565b60006040820190506116bf6000830185611583565b6116cc6020830184611240565b9392505050565b6000604051905081810181811067ffffffffffffffff821117156116fa576116f9611885565b5b8060405250919050565b600067ffffffffffffffff82111561171f5761171e611885565b5b601f19601f8301169050602081019050919050565b6000819050602082019050919050565b600081519050919050565b600081519050919050565b6000602082019050919050565b600082825260208201905092915050565b600082825260208201905092915050565b600082825260208201905092915050565b60006117a5826117b8565b9050919050565b60008115159050919050565b600073ffffffffffffffffffffffffffffffffffffffff82169050919050565b6000819050919050565b82818337600083830152505050565b60005b8381101561180f5780820151818401526020810190506117f4565b8381111561181e576000848401525b50505050565b6000600282049050600182168061183c57607f821691505b602082108114156118505761184f611856565b5b50919050565b7f4e487b7100000000000000000000000000000000000000000000000000000000600052602260045260246000fd5b7f4e487b7100000000000000000000000000000000000000000000000000000000600052604160045260246000fd5b6000601f19601f8301169050919050565b6118ce8161179a565b81146118d957600080fd5b50565b6118e5816117d8565b81146118f057600080fd5b5056fea2646970667358221220440796a2711c82eaf2b4f2cf14a5fe5c6cd1d1ed1eaed0adccfd25eaf953e5c064736f6c63430008000033",
  "immutableReferences": {},
  "source": "// SPDX-License-Identifier: MIT\r\npragma solidity ^0.8.0;\r\n\r\ncontract HealthcareRecords {\r\n\r\n    address public owner;\r\n\r\n    constructor() {\r\n        owner = msg.sender;\r\n    }\r\n\r\n    struct Record {\r\n        uint256 recordID;\r\n        string patientName;\r\n        string gender;\r\n        uint256 age;\r\n        string bloodGroup;\r\n        string diagnosis;\r\n        string treatment;\r\n        string doctorName;\r\n        uint256 timestamp;\r\n    }\r\n\r\n    mapping(uint256 => Record[]) private records;\r\n\r\n    // Roles\r\n    mapping(address => bool) public doctors;\r\n\r\n    // Patient ownership & consent\r\n    mapping(uint256 => address) public patientOwner;\r\n    mapping(uint256 => mapping(address => bool)) public consent;\r\n\r\n    // Events\r\n    event DoctorAuthorized(address doctor);\r\n    event PatientRegistered(uint256 patientID, address patient);\r\n    event ConsentGranted(uint256 patientID, address doctor);\r\n    event ConsentRevoked(uint256 patientID, address doctor);\r\n    event RecordAccessed(uint256 patientID, address accessor, uint256 time);\r\n\r\n    modifier onlyOwner() {\r\n        require(msg.sender == owner, \"Only owner\");\r\n        _;\r\n    }\r\n\r\n    modifier onlyDoctor() {\r\n        require(doctors[msg.sender], \"Not a doctor\");\r\n        _;\r\n    }\r\n\r\n    // Owner authorizes doctors\r\n    function authorizeDoctor(address doctor) external onlyOwner {\r\n        doctors[doctor] = true;\r\n        emit DoctorAuthorized(doctor);\r\n    }\r\n\r\n    // Patient registers ownership\r\n    function registerPatient(uint256 patientID) external {\r\n        require(patientOwner[patientID] == address(0), \"Already registered\");\r\n        patientOwner[patientID] = msg.sender;\r\n        emit PatientRegistered(patientID, msg.sender);\r\n    }\r\n\r\n    // Patient grants consent\r\n    function grantConsent(uint256 patientID, address doctor) external {\r\n        require(msg.sender == patientOwner[patientID], \"Not patient\");\r\n        consent[patientID][doctor] = true;\r\n        emit ConsentGranted(patientID, doctor);\r\n    }\r\n\r\n    // Patient revokes consent\r\n    function revokeConsent(uint256 patientID, address doctor) external {\r\n        require(msg.sender == patientOwner[patientID], \"Not patient\");\r\n        consent[patientID][doctor] = false;\r\n        emit ConsentRevoked(patientID, doctor);\r\n    }\r\n\r\n    // Doctor adds record ONLY with consent\r\n    function addRecord(\r\n        uint256 patientID,\r\n        string memory patientName,\r\n        string memory gender,\r\n        uint256 age,\r\n        string memory bloodGroup,\r\n        string memory diagnosis,\r\n        string memory treatment,\r\n        string memory doctorName\r\n    ) external onlyDoctor {\r\n\r\n        require(consent[patientID][msg.sender], \"No patient consent\");\r\n\r\n        records[patientID].push(\r\n            Record(\r\n                records[patientID].length,\r\n                patientName,\r\n                gender,\r\n                age,\r\n                bloodGroup,\r\n                diagnosis,\r\n                treatment,\r\n                doctorName,\r\n                block.timestamp\r\n            )\r\n        );\r\n    }\r\n\r\n    // Secure record access\r\n    function getPatientRecords(uint256 patientID)\r\n        external\r\n        view\r\n        returns (Record[] memory)\r\n    {\r\n        require(\r\n            msg.sender == patientOwner[patientID] ||\r\n            consent[patientID][msg.sender],\r\n            \"Access denied\"\r\n        );\r\n\r\n        return records[patientID];\r\n    }\r\n}\r\n",
  "sourcePath": "E:\\Coding\\Projects\\MedicDapp\\blockchain\\contracts\\Healthcare.sol",
  "compiler": {
    "name": "solc",
    "version": "0.8.0+commit.c7dfd78e.Emscripten.clang"
  },
  "schemaVersion": "3.4.16",
  "updatedAt": "2026-01-21T10:16:01.601Z",
  "networkType": "ethereum",
  "devdoc": {
    "kind": "dev",
    "methods": {},
    "version": 1
  },
  "userdoc": {
    "kind": "user",
    "methods": {},
    "version": 1
  }
}