{
  "contractName": "HealthcareRecords",
  "abi": [
    {
      "inputs": [],
      "stateMutability": "nonpayable",
      "type": "constructor"
    },
    {
      "anonymous": false,
      "inputs": [
        {
          "indexed": false,
          "internalType": "uint256",
          "name": "patientID",
          "type": "uint256"
        },
        {
          "indexed": false,
          "internalType": "address",
          "name": "doctor",
          "type": "address"
        }
      ],
      "name": "ConsentGranted",
      "type": "event"
    },
    {
      "anonymous": false,
      "inputs": [
        {
          "indexed": false,
          "internalType": "uint256",
          "name": "patientID",
          "type": "uint256"
        },
        {
          "indexed": false,
          "internalType": "address",
          "name": "doctor",
          "type": "address"
        }
      ],
      "name": "ConsentRevoked",
      "type": "event"
    },
    {
      "anonymous": false,
      "inputs": [
        {
          "indexed": false,
          "internalType": "address",
          "name": "doctor",
          "type": "address"
        }
      ],
      "name": "DoctorAuthorized",
      "type": "event"
    },
    {
      "anonymous": false,
      "inputs": [
        {
          "indexed": false,
          "internalType": "uint256",
          "name": "patientID",
          "type": "uint256"
        },
        {
          "indexed": false,
          "internalType": "address",
          "name": "patient",
          "type": "address"
        }
      ],
      "name": "PatientRegistered",
      "type": "event"
    },
    {
      "anonymous": false,
      "inputs": [
        {
          "indexed": false,
          "internalType": "uint256",
          "name": "patientID",
          "type": "uint256"
        },
        {
          "indexed": false,
          "internalType": "address",
          "name": "accessor",
          "type": "address"
        },
        {
          "indexed": false,
          "internalType": "uint256",
          "name": "time",
          "type": "uint256"
        }
      ],
      "name": "RecordAccessed",
      "type": "event"
    },
    {
      "inputs": [
        {
          "internalType": "uint256",
          "name": "",
          "type": "uint256"
        },
        {
          "internalType": "address",
          "name": "",
          "type": "address"
        }
      ],
      "name": "consent",
      "outputs": [
        {
          "internalType": "bool",
          "name": "",
          "type": "bool"
        }
      ],
      "stateMutability": "view",
      "type": "function",
      "constant": true
    },
    {
      "inputs": [
        {
          "internalType": "address",
          "name": "",
          "type": "address"
        }
      ],
      "name": "doctors",
      "outputs": [
        {
          "internalType": "bool",
          "name": "",
          "type": "bool"
        }
      ],
      "stateMutability": "view",
      "type": "function",
      "constant": true
    },
    {
      "inputs": [],
      "name": "owner",
      "outputs": [
        {
          "internalType": "address",
          "name": "",
          "type": "address"
        }
      ],
      "stateMutability": "view",
      "type": "function",
      "constant": true
    },
    {
      "inputs": [
        {
          "internalType": "uint256",
          "name": "",
          "type": "uint256"
        }
      ],
      "name": "patientOwner",
      "outputs": [
        {
          "internalType": "address",
          "name": "",
          "type": "address"
        }
      ],
      "stateMutability": "view",
      "type": "function",
      "constant": true
    },
    {
      "inputs": [
        {
          "internalType": "address",
          "name": "doctor",
          "type": "address"
        }
      ],
      "name": "authorizeDoctor",
      "outputs": [],
      "stateMutability": "nonpayable",
      "type": "function"
    },
    {
      "inputs": [
        {
          "internalType": "uint256",
          "name": "patientID",
          "type": "uint256"
        }
      ],
      "name": "registerPatient",
      "outputs": [],
      "stateMutability": "nonpayable",
      "type": "function"
    },
    {
      "inputs": [
        {
          "internalType": "uint256",
          "name": "patientID",
          "type": "uint256"
        },
        {
          "internalType": "address",
          "name": "doctor",
          "type": "address"
        }
      ],
      "name": "grantConsent",
      "outputs": [],
      "stateMutability": "nonpayable",
      "type": "function"
    },
    {
      "inputs": [
        {
          "internalType": "uint256",
          "name": "patientID",
          "type": "uint256"
        },
        {
          "internalType": "address",
          "name": "doctor",
          "type": "address"
        }
      ],
      "name": "revokeConsent",
      "outputs": [],
      "stateMutability": "nonpayable",
      "type": "function"
    },
    {
      "inputs": [
        {
          "internalType": "uint256",
          "name": "patientID",
          "type": "uint256"
        },
        {
          "internalType": "string",
          "name": "patientName",
          "type": "string"
        },
        {
          "internalType": "string",
          "name": "gender",
          "type": "string"
        },
        {
          "internalType": "uint256",
          "name": "age",
          "type": "uint256"
        },
        {
          "internalType": "string",
          "name": "bloodGroup",
          "type": "string"
        },
        {
          "internalType": "string",
          "name": "diagnosis",
          "type": "string"
        },
        {
          "internalType": "string",
          "name": "treatment",
          "type": "string"
        },
        {
          "internalType": "string",
          "name": "doctorName",
          "type": "string"
        }
      ],
      "name": "addRecord",
      "outputs": [],
      "stateMutability": "nonpayable",
      "type": "function"
    },
    {
      "inputs": [
        {
          "internalType": "uint256",
          "name": "patientID",
          "type": "uint256"
        },
        {
          "internalType": "uint256",
          "name": "recordID",
          "type": "uint256"
        },
        {
          "internalType": "string[]",
          "name": "fileHashes",
          "type": "string[]"
        },
        {
          "internalType": "string[]",
          "name": "fileNames",
          "type": "string[]"
        },
        {
          "internalType": "string[]",
          "name": "fileTypes",
          "type": "string[]"
        }
      ],
      "name": "addFilesToRecord",
      "outputs": [],
      "stateMutability": "nonpayable",
      "type": "function"
    },
    {
      "inputs": [
        {
          "internalType": "uint256",
          "name": "patientID",
          "type": "uint256"
        }
      ],
      "name": "getPatientRecords",
      "outputs": [
        {
          "components": [
            {
              "internalType": "uint256",
              "name": "recordID",
              "type": "uint256"
            },
            {
              "internalType": "string",
              "name": "patientName",
              "type": "string"
            },
            {
              "internalType": "string",
              "name": "gender",
              "type": "string"
            },
            {
              "internalType": "uint256",
              "name": "age",
              "type": "uint256"
            },
            {
              "internalType": "string",
              "name": "bloodGroup",
              "type": "string"
            },
            {
              "internalType": "string",
              "name": "diagnosis",
              "type": "string"
            },
            {
              "internalType": "string",
              "name": "treatment",
              "type": "string"
            },
            {
              "internalType": "string",
              "name": "doctorName",
              "type": "string"
            },
            {
              "internalType": "uint256",
              "name": "timestamp",
              "type": "uint256"
            },
            {
              "internalType": "string[]",
              "name": "fileHashes",
              "type": "string[]"
            },
            {
              "internalType": "string[]",
              "name": "fileNames",
              "type": "string[]"
            },
            {
              "internalType": "string[]",
              "name": "fileTypes",
              "type": "string[]"
            }
          ],
          "internalType": "struct HealthcareRecords.Record[]",
          "name": "",
          "type": "tuple[]"
        }
      ],
      "stateMutability": "view",
      "type": "function",
      "constant": true
    }
  ],
  "bytecode": "0x608060405234801561001057600080fd5b50336000806101000a81548173ffffffffffffffffffffffffffffffffffffffff021916908373ffffffffffffffffffffffffffffffffffffffff160217905550612524806100606000396000f3fe608060405234801561001057600080fd5b50600436106100a95760003560e01c806386c856191161007157806386c856191461014e5780638da5cb5b1461016a578063a9583c2214610188578063bcdf6161146101b8578063dce7e843146101d4578063ffa39c5d14610204576100a9565b80632c4b05d0146100ae5780632ef711af146100de57806348fba5c6146100fa57806355bfb17a1461011657806358c9202c14610132575b600080fd5b6100c860048036038101906100c391906119d0565b610234565b6040516100d591906120cd565b60405180910390f35b6100f860048036038101906100f391906119d0565b610263565b005b610114600480360381019061010f91906119d0565b6103aa565b005b610130600480360381019061012b9190611b4e565b6104f1565b005b61014c6004803603810190610147919061197e565b61084e565b005b610168600480360381019061016391906119a7565b61096d565b005b610172610a9d565b60405161017f9190612090565b60405180910390f35b6101a2600480360381019061019d919061197e565b610ac1565b6040516101af91906120cd565b60405180910390f35b6101d260048036038101906101cd9190611a0c565b610ae1565b005b6101ee60048036038101906101e991906119a7565b610f3d565b6040516101fb91906120ab565b60405180910390f35b61021e600480360381019061021991906119a7565b6116cb565b60405161022b9190612090565b60405180910390f35b60046020528160005260406000206020528060005260406000206000915091509054906101000a900460ff1681565b6003600083815260200190815260200160002060009054906101000a900473ffffffffffffffffffffffffffffffffffffffff1673ffffffffffffffffffffffffffffffffffffffff163373ffffffffffffffffffffffffffffffffffffffff1614610304576040517f08c379a00000000000000000000000000000000000000000000000000000000081526004016102fb90612188565b60405180910390fd5b60006004600084815260200190815260200160002060008373ffffffffffffffffffffffffffffffffffffffff1673ffffffffffffffffffffffffffffffffffffffff16815260200190815260200160002060006101000a81548160ff0219169083151502179055507fbdf496d41407769ff71ececae6537542760506406fb62a651e7ac685c637bd83828260405161039e9291906121c8565b60405180910390a15050565b6003600083815260200190815260200160002060009054906101000a900473ffffffffffffffffffffffffffffffffffffffff1673ffffffffffffffffffffffffffffffffffffffff163373ffffffffffffffffffffffffffffffffffffffff161461044b576040517f08c379a000000000000000000000000000000000000000000000000000000000815260040161044290612188565b60405180910390fd5b60016004600084815260200190815260200160002060008373ffffffffffffffffffffffffffffffffffffffff1673ffffffffffffffffffffffffffffffffffffffff16815260200190815260200160002060006101000a81548160ff0219169083151502179055507ff3a34a7a216f396897a5bd0483c3b0b288e703d61c3c0f3a1c1cf6e04cb3130a82826040516104e59291906121c8565b60405180910390a15050565b6003600086815260200190815260200160002060009054906101000a900473ffffffffffffffffffffffffffffffffffffffff1673ffffffffffffffffffffffffffffffffffffffff163373ffffffffffffffffffffffffffffffffffffffff1614806105b857506004600086815260200190815260200160002060003373ffffffffffffffffffffffffffffffffffffffff1673ffffffffffffffffffffffffffffffffffffffff16815260200190815260200160002060009054906101000a900460ff165b6105f7576040517f08c379a00000000000000000000000000000000000000000000000000000000081526004016105ee906121a8565b60405180910390fd5b6001600086815260200190815260200160002080549050841061064f576040517f08c379a000000000000000000000000000000000000000000000000000000000815260040161064690612148565b60405180910390fd5b600060016000878152602001908152602001600020858154811061069c577f4e487b7100000000000000000000000000000000000000000000000000000000600052603260045260246000fd5b90600052602060002090600c0201905060005b845181101561084557816009018582815181106106f5577f4e487b7100000000000000000000000000000000000000000000000000000000600052603260045260246000fd5b60200260200101519080600181540180825580915050600190039060005260206000200160009091909190915090805190602001906107359291906116fe565b5081600a01848281518110610773577f4e487b7100000000000000000000000000000000000000000000000000000000600052603260045260246000fd5b60200260200101519080600181540180825580915050600190039060005260206000200160009091909190915090805190602001906107b39291906116fe565b5081600b018382815181106107f1577f4e487b7100000000000000000000000000000000000000000000000000000000600052603260045260246000fd5b60200260200101519080600181540180825580915050600190039060005260206000200160009091909190915090805190602001906108319291906116fe565b50808061083d906123d9565b9150506106af565b50505050505050565b60008054906101000a900473ffffffffffffffffffffffffffffffffffffffff1673ffffffffffffffffffffffffffffffffffffffff163373ffffffffffffffffffffffffffffffffffffffff16146108dc576040517f08c379a00000000000000000000000000000000000000000000000000000000081526004016108d3906120e8565b60405180910390fd5b6001600260008373ffffffffffffffffffffffffffffffffffffffff1673ffffffffffffffffffffffffffffffffffffffff16815260200190815260200160002060006101000a81548160ff0219169083151502179055507ea8f5cec2bb2e273b1757cce595776dacdc60b8c5245756d69fa2bd0b2833cc816040516109629190612090565b60405180910390a150565b600073ffffffffffffffffffffffffffffffffffffffff166003600083815260200190815260200160002060009054906101000a900473ffffffffffffffffffffffffffffffffffffffff1673ffffffffffffffffffffffffffffffffffffffff1614610a0f576040517f08c379a0000000000000000000000000000000000000000000000000000000008152600401610a0690612128565b60405180910390fd5b336003600083815260200190815260200160002060006101000a81548173ffffffffffffffffffffffffffffffffffffffff021916908373ffffffffffffffffffffffffffffffffffffffff1602179055507f5eac531a816ac6546a4c3edbf9748745fe74cfd5806cd8fa8a4a01b71248bf848133604051610a929291906121c8565b60405180910390a150565b60008054906101000a900473ffffffffffffffffffffffffffffffffffffffff1681565b60026020528060005260406000206000915054906101000a900460ff1681565b600260003373ffffffffffffffffffffffffffffffffffffffff1673ffffffffffffffffffffffffffffffffffffffff16815260200190815260200160002060009054906101000a900460ff16610b6d576040517f08c379a0000000000000000000000000000000000000000000000000000000008152600401610b6490612168565b60405180910390fd5b6004600089815260200190815260200160002060003373ffffffffffffffffffffffffffffffffffffffff1673ffffffffffffffffffffffffffffffffffffffff16815260200190815260200160002060009054906101000a900460ff16610c0a576040517f08c379a0000000000000000000000000000000000000000000000000000000008152600401610c0190612108565b60405180910390fd5b60016000898152602001908152602001600020604051806101800160405280600160008c8152602001908152602001600020805490508152602001898152602001888152602001878152602001868152602001858152602001848152602001838152602001428152602001600067ffffffffffffffff811115610cb6577f4e487b7100000000000000000000000000000000000000000000000000000000600052604160045260246000fd5b604051908082528060200260200182016040528015610ce957816020015b6060815260200190600190039081610cd45790505b508152602001600067ffffffffffffffff811115610d30577f4e487b7100000000000000000000000000000000000000000000000000000000600052604160045260246000fd5b604051908082528060200260200182016040528015610d6357816020015b6060815260200190600190039081610d4e5790505b508152602001600067ffffffffffffffff811115610daa577f4e487b7100000000000000000000000000000000000000000000000000000000600052604160045260246000fd5b604051908082528060200260200182016040528015610ddd57816020015b6060815260200190600190039081610dc85790505b5081525090806001815401808255809150506001900390600052602060002090600c0201600090919091909150600082015181600001556020820151816001019080519060200190610e309291906116fe565b506040820151816002019080519060200190610e4d9291906116fe565b50606082015181600301556080820151816004019080519060200190610e749291906116fe565b5060a0820151816005019080519060200190610e919291906116fe565b5060c0820151816006019080519060200190610eae9291906116fe565b5060e0820151816007019080519060200190610ecb9291906116fe565b506101008201518160080155610120820151816009019080519060200190610ef4929190611784565b5061014082015181600a019080519060200190610f12929190611784565b5061016082015181600b019080519060200190610f30929190611784565b5050505050505050505050565b60606003600083815260200190815260200160002060009054906101000a900473ffffffffffffffffffffffffffffffffffffffff1673ffffffffffffffffffffffffffffffffffffffff163373ffffffffffffffffffffffffffffffffffffffff16148061100657506004600083815260200190815260200160002060003373ffffffffffffffffffffffffffffffffffffffff1673ffffffffffffffffffffffffffffffffffffffff16815260200190815260200160002060009054906101000a900460ff165b611045576040517f08c379a000000000000000000000000000000000000000000000000000000000815260040161103c906121a8565b60405180910390fd5b60016000838152602001908152602001600020805480602002602001604051908101604052809291908181526020016000905b828210156116c057838290600052602060002090600c020160405180610180016040529081600082015481526020016001820180546110b6906123a7565b80601f01602080910402602001604051908101604052809291908181526020018280546110e2906123a7565b801561112f5780601f106111045761010080835404028352916020019161112f565b820191906000526020600020905b81548152906001019060200180831161111257829003601f168201915b50505050508152602001600282018054611148906123a7565b80601f0160208091040260200160405190810160405280929190818152602001828054611174906123a7565b80156111c15780601f10611196576101008083540402835291602001916111c1565b820191906000526020600020905b8154815290600101906020018083116111a457829003601f168201915b50505050508152602001600382015481526020016004820180546111e4906123a7565b80601f0160208091040260200160405190810160405280929190818152602001828054611210906123a7565b801561125d5780601f106112325761010080835404028352916020019161125d565b820191906000526020600020905b81548152906001019060200180831161124057829003601f168201915b50505050508152602001600582018054611276906123a7565b80601f01602080910402602001604051908101604052809291908181526020018280546112a2906123a7565b80156112ef5780601f106112c4576101008083540402835291602001916112ef565b820191906000526020600020905b8154815290600101906020018083116112d257829003601f168201915b50505050508152602001600682018054611308906123a7565b80601f0160208091040260200160405190810160405280929190818152602001828054611334906123a7565b80156113815780601f1061135657610100808354040283529160200191611381565b820191906000526020600020905b81548152906001019060200180831161136457829003601f168201915b5050505050815260200160078201805461139a906123a7565b80601f01602080910402602001604051908101604052809291908181526020018280546113c6906123a7565b80156114135780601f106113e857610100808354040283529160200191611413565b820191906000526020600020905b8154815290600101906020018083116113f657829003601f168201915b505050505081526020016008820154815260200160098201805480602002602001604051908101604052809291908181526020016000905b828210156114f757838290600052602060002001805461146a906123a7565b80601f0160208091040260200160405190810160405280929190818152602001828054611496906123a7565b80156114e35780601f106114b8576101008083540402835291602001916114e3565b820191906000526020600020905b8154815290600101906020018083116114c657829003601f168201915b50505050508152602001906001019061144b565b505050508152602001600a8201805480602002602001604051908101604052809291908181526020016000905b828210156115d0578382906000526020600020018054611543906123a7565b80601f016020809104026020016040519081016040528092919081815260200182805461156f906123a7565b80156115bc5780601f10611591576101008083540402835291602001916115bc565b820191906000526020600020905b81548152906001019060200180831161159f57829003601f168201915b505050505081526020019060010190611524565b505050508152602001600b8201805480602002602001604051908101604052809291908181526020016000905b828210156116a957838290600052602060002001805461161c906123a7565b80601f0160208091040260200160405190810160405280929190818152602001828054611648906123a7565b80156116955780601f1061166a57610100808354040283529160200191611695565b820191906000526020600020905b81548152906001019060200180831161167857829003601f168201915b5050505050815260200190600101906115fd565b505050508152505081526020019060010190611078565b505050509050919050565b60036020528060005260406000206000915054906101000a900473ffffffffffffffffffffffffffffffffffffffff1681565b82805461170a906123a7565b90600052602060002090601f01602090048101928261172c5760008555611773565b82601f1061174557805160ff1916838001178555611773565b82800160010185558215611773579182015b82811115611772578251825591602001919060010190611757565b5b50905061178091906117e4565b5090565b8280548282559060005260206000209081019282156117d3579160200282015b828111156117d25782518290805190602001906117c29291906116fe565b50916020019190600101906117a4565b5b5090506117e09190611801565b5090565b5b808211156117fd5760008160009055506001016117e5565b5090565b5b8082111561182157600081816118189190611825565b50600101611802565b5090565b508054611831906123a7565b6000825580601f106118435750611862565b601f01602090049060005260206000209081019061186191906117e4565b5b50565b600061187861187384612222565b6121f1565b9050808382526020820190508260005b858110156118b8578135850161189e888261193f565b845260208401935060208301925050600181019050611888565b5050509392505050565b60006118d56118d08461224e565b6121f1565b9050828152602081018484840111156118ed57600080fd5b6118f8848285612365565b509392505050565b60008135905061190f816124c0565b92915050565b600082601f83011261192657600080fd5b8135611936848260208601611865565b91505092915050565b600082601f83011261195057600080fd5b81356119608482602086016118c2565b91505092915050565b600081359050611978816124d7565b92915050565b60006020828403121561199057600080fd5b600061199e84828501611900565b91505092915050565b6000602082840312156119b957600080fd5b60006119c784828501611969565b91505092915050565b600080604083850312156119e357600080fd5b60006119f185828601611969565b9250506020611a0285828601611900565b9150509250929050565b600080600080600080600080610100898b031215611a2957600080fd5b6000611a378b828c01611969565b985050602089013567ffffffffffffffff811115611a5457600080fd5b611a608b828c0161193f565b975050604089013567ffffffffffffffff811115611a7d57600080fd5b611a898b828c0161193f565b9650506060611a9a8b828c01611969565b955050608089013567ffffffffffffffff811115611ab757600080fd5b611ac38b828c0161193f565b94505060a089013567ffffffffffffffff811115611ae057600080fd5b611aec8b828c0161193f565b93505060c089013567ffffffffffffffff811115611b0957600080fd5b611b158b828c0161193f565b92505060e089013567ffffffffffffffff811115611b3257600080fd5b611b3e8b828c0161193f565b9150509295985092959890939650565b600080600080600060a08688031215611b6657600080fd5b6000611b7488828901611969565b9550506020611b8588828901611969565b945050604086013567ffffffffffffffff811115611ba257600080fd5b611bae88828901611915565b935050606086013567ffffffffffffffff811115611bcb57600080fd5b611bd788828901611915565b925050608086013567ffffffffffffffff811115611bf457600080fd5b611c0088828901611915565b9150509295509295909350565b6000611c198383611d3d565b905092915050565b6000611c2d8383611f36565b905092915050565b611c3e8161231d565b82525050565b6000611c4f8261229e565b611c5981856122d9565b935083602082028501611c6b8561227e565b8060005b85811015611ca75784840389528151611c888582611c0d565b9450611c93836122bf565b925060208a01995050600181019050611c6f565b50829750879550505050505092915050565b6000611cc4826122a9565b611cce81856122ea565b935083602082028501611ce08561228e565b8060005b85811015611d1c5784840389528151611cfd8582611c21565b9450611d08836122cc565b925060208a01995050600181019050611ce4565b50829750879550505050505092915050565b611d378161232f565b82525050565b6000611d48826122b4565b611d5281856122fb565b9350611d62818560208601612374565b611d6b816124af565b840191505092915050565b6000611d83600a8361230c565b91507f4f6e6c79206f776e6572000000000000000000000000000000000000000000006000830152602082019050919050565b6000611dc360128361230c565b91507f4e6f2070617469656e7420636f6e73656e7400000000000000000000000000006000830152602082019050919050565b6000611e0360128361230c565b91507f416c7265616479207265676973746572656400000000000000000000000000006000830152602082019050919050565b6000611e4360158361230c565b91507f5265636f726420646f6573206e6f7420657869737400000000000000000000006000830152602082019050919050565b6000611e83600c8361230c565b91507f4e6f74206120646f63746f7200000000000000000000000000000000000000006000830152602082019050919050565b6000611ec3600b8361230c565b91507f4e6f742070617469656e740000000000000000000000000000000000000000006000830152602082019050919050565b6000611f03600d8361230c565b91507f4163636573732064656e696564000000000000000000000000000000000000006000830152602082019050919050565b600061018083016000830151611f4f6000860182612072565b5060208301518482036020860152611f678282611d3d565b91505060408301518482036040860152611f818282611d3d565b9150506060830151611f966060860182612072565b5060808301518482036080860152611fae8282611d3d565b91505060a083015184820360a0860152611fc88282611d3d565b91505060c083015184820360c0860152611fe28282611d3d565b91505060e083015184820360e0860152611ffc8282611d3d565b915050610100830151612013610100860182612072565b5061012083015184820361012086015261202d8282611c44565b9150506101408301518482036101408601526120498282611c44565b9150506101608301518482036101608601526120658282611c44565b9150508091505092915050565b61207b8161235b565b82525050565b61208a8161235b565b82525050565b60006020820190506120a56000830184611c35565b92915050565b600060208201905081810360008301526120c58184611cb9565b905092915050565b60006020820190506120e26000830184611d2e565b92915050565b6000602082019050818103600083015261210181611d76565b9050919050565b6000602082019050818103600083015261212181611db6565b9050919050565b6000602082019050818103600083015261214181611df6565b9050919050565b6000602082019050818103600083015261216181611e36565b9050919050565b6000602082019050818103600083015261218181611e76565b9050919050565b600060208201905081810360008301526121a181611eb6565b9050919050565b600060208201905081810360008301526121c181611ef6565b9050919050565b60006040820190506121dd6000830185612081565b6121ea6020830184611c35565b9392505050565b6000604051905081810181811067ffffffffffffffff8211171561221857612217612480565b5b8060405250919050565b600067ffffffffffffffff82111561223d5761223c612480565b5b602082029050602081019050919050565b600067ffffffffffffffff82111561226957612268612480565b5b601f19601f8301169050602081019050919050565b6000819050602082019050919050565b6000819050602082019050919050565b600081519050919050565b600081519050919050565b600081519050919050565b6000602082019050919050565b6000602082019050919050565b600082825260208201905092915050565b600082825260208201905092915050565b600082825260208201905092915050565b600082825260208201905092915050565b60006123288261233b565b9050919050565b60008115159050919050565b600073ffffffffffffffffffffffffffffffffffffffff82169050919050565b6000819050919050565b82818337600083830152505050565b60005b83811015612392578082015181840152602081019050612377565b838111156123a1576000848401525b50505050565b600060028204905060018216806123bf57607f821691505b602082108114156123d3576123d2612451565b5b50919050565b60006123e48261235b565b91507fffffffffffffffffffffffffffffffffffffffffffffffffffffffffffffffff82141561241757612416612422565b5b600182019050919050565b7f4e487b7100000000000000000000000000000000000000000000000000000000600052601160045260246000fd5b7f4e487b7100000000000000000000000000000000000000000000000000000000600052602260045260246000fd5b7f4e487b7100000000000000000000000000000000000000000000000000000000600052604160045260246000fd5b6000601f19601f8301169050919050565b6124c98161231d565b81146124d457600080fd5b50565b6124e08161235b565b81146124eb57600080fd5b5056fea2646970667358221220cd937b75d4f2249392eebb0493ebb0cb6e712ce498b0294286b07ec7e50a619f64736f6c63430008000033",
  "immutableReferences": {},
  "source": "// SPDX-License-Identifier: MIT\r\npragma solidity ^0.8.0;\r\n\r\ncontract HealthcareRecords {\r\n\r\n    address public owner;\r\n\r\n    constructor() {\r\n        owner = msg.sender;\r\n    }\r\n\r\n    struct Record {\r\n        uint256 recordID;\r\n        string patientName;\r\n        string gender;\r\n        uint256 age;\r\n        string bloodGroup;\r\n        string diagnosis;\r\n        string treatment;\r\n        string doctorName;\r\n        uint256 timestamp;\r\n        string[] fileHashes; // IPFS hashes of uploaded files\r\n        string[] fileNames;  // Original file names\r\n        string[] fileTypes;  // File types (image, document, etc.)\r\n    }\r\n\r\n    mapping(uint256 => Record[]) private records;\r\n\r\n    // Roles\r\n    mapping(address => bool) public doctors;\r\n\r\n    // Patient ownership & consent\r\n    mapping(uint256 => address) public patientOwner;\r\n    mapping(uint256 => mapping(address => bool)) public consent;\r\n\r\n    // Events\r\n    event DoctorAuthorized(address doctor);\r\n    event PatientRegistered(uint256 patientID, address patient);\r\n    event ConsentGranted(uint256 patientID, address doctor);\r\n    event ConsentRevoked(uint256 patientID, address doctor);\r\n    event RecordAccessed(uint256 patientID, address accessor, uint256 time);\r\n\r\n    modifier onlyOwner() {\r\n        require(msg.sender == owner, \"Only owner\");\r\n        _;\r\n    }\r\n\r\n    modifier onlyDoctor() {\r\n        require(doctors[msg.sender], \"Not a doctor\");\r\n        _;\r\n    }\r\n\r\n    // Owner authorizes doctors\r\n    function authorizeDoctor(address doctor) external onlyOwner {\r\n        doctors[doctor] = true;\r\n        emit DoctorAuthorized(doctor);\r\n    }\r\n\r\n    // Patient registers ownership\r\n    function registerPatient(uint256 patientID) external {\r\n        require(patientOwner[patientID] == address(0), \"Already registered\");\r\n        patientOwner[patientID] = msg.sender;\r\n        emit PatientRegistered(patientID, msg.sender);\r\n    }\r\n\r\n    // Patient grants consent\r\n    function grantConsent(uint256 patientID, address doctor) external {\r\n        require(msg.sender == patientOwner[patientID], \"Not patient\");\r\n        consent[patientID][doctor] = true;\r\n        emit ConsentGranted(patientID, doctor);\r\n    }\r\n\r\n    // Patient revokes consent\r\n    function revokeConsent(uint256 patientID, address doctor) external {\r\n        require(msg.sender == patientOwner[patientID], \"Not patient\");\r\n        consent[patientID][doctor] = false;\r\n        emit ConsentRevoked(patientID, doctor);\r\n    }\r\n\r\n    // Doctor adds record ONLY with consent\r\n    function addRecord(\r\n        uint256 patientID,\r\n        string memory patientName,\r\n        string memory gender,\r\n        uint256 age,\r\n        string memory bloodGroup,\r\n        string memory diagnosis,\r\n        string memory treatment,\r\n        string memory doctorName\r\n    ) external onlyDoctor {\r\n\r\n        require(consent[patientID][msg.sender], \"No patient consent\");\r\n\r\n        records[patientID].push(\r\n            Record(\r\n                records[patientID].length,\r\n                patientName,\r\n                gender,\r\n                age,\r\n                bloodGroup,\r\n                diagnosis,\r\n                treatment,\r\n                doctorName,\r\n                block.timestamp,\r\n                new string[](0), // fileHashes\r\n                new string[](0), // fileNames\r\n                new string[](0)  // fileTypes\r\n            )\r\n        );\r\n    }\r\n\r\n    // Add files to existing record\r\n    function addFilesToRecord(\r\n        uint256 patientID,\r\n        uint256 recordID,\r\n        string[] memory fileHashes,\r\n        string[] memory fileNames,\r\n        string[] memory fileTypes\r\n    ) external {\r\n        require(\r\n            msg.sender == patientOwner[patientID] ||\r\n            consent[patientID][msg.sender],\r\n            \"Access denied\"\r\n        );\r\n        require(recordID < records[patientID].length, \"Record does not exist\");\r\n\r\n        Record storage record = records[patientID][recordID];\r\n\r\n        for (uint256 i = 0; i < fileHashes.length; i++) {\r\n            record.fileHashes.push(fileHashes[i]);\r\n            record.fileNames.push(fileNames[i]);\r\n            record.fileTypes.push(fileTypes[i]);\r\n        }\r\n    }\r\n\r\n    // Secure record access\r\n    function getPatientRecords(uint256 patientID)\r\n        external\r\n        view\r\n        returns (Record[] memory)\r\n    {\r\n        require(\r\n            msg.sender == patientOwner[patientID] ||\r\n            consent[patientID][msg.sender],\r\n            \"Access denied\"\r\n        );\r\n\r\n        return records[patientID];\r\n    }\r\n}\r\n",
  "sourcePath": "E:\\Coding\\Projects\\MedicDapp\\blockchain\\contracts\\Healthcare.sol",
  "compiler": {
    "name": "solc",
    "version": "0.8.0+commit.c7dfd78e.Emscripten.clang"
  },
  "schemaVersion": "3.4.16",
  "updatedAt": "2026-01-21T11:05:53.185Z",
  "networkType": "ethereum",
  "devdoc": {
    "kind": "dev",
    "methods": {},
    "version": 1
  },
  "userdoc": {
    "kind": "user",
    "methods": {},
    "version": 1
  }
}